{
  "contractName": "SocialNetwork",
  "abi": [
    {
      "inputs": [],
      "stateMutability": "nonpayable",
      "type": "constructor"
    },
    {
      "anonymous": false,
      "inputs": [
        {
          "indexed": false,
          "internalType": "uint256",
          "name": "id",
          "type": "uint256"
        },
        {
          "indexed": false,
          "internalType": "string",
          "name": "content",
          "type": "string"
        },
        {
          "indexed": false,
          "internalType": "uint256",
          "name": "tipAmount",
          "type": "uint256"
        },
        {
          "indexed": false,
          "internalType": "address payable",
          "name": "author",
          "type": "address"
        }
      ],
      "name": "PostCreated",
      "type": "event"
    },
    {
      "anonymous": false,
      "inputs": [
        {
          "indexed": false,
          "internalType": "uint256",
          "name": "id",
          "type": "uint256"
        },
        {
          "indexed": false,
          "internalType": "string",
          "name": "content",
          "type": "string"
        },
        {
          "indexed": false,
          "internalType": "uint256",
          "name": "tipAmount",
          "type": "uint256"
        },
        {
          "indexed": false,
          "internalType": "address payable",
          "name": "author",
          "type": "address"
        }
      ],
      "name": "PostTipped",
      "type": "event"
    },
    {
      "inputs": [],
      "name": "name",
      "outputs": [
        {
          "internalType": "string",
          "name": "",
          "type": "string"
        }
      ],
      "stateMutability": "view",
      "type": "function",
      "constant": true
    },
    {
      "inputs": [
        {
          "internalType": "uint256",
          "name": "",
          "type": "uint256"
        }
      ],
      "name": "posts",
      "outputs": [
        {
          "internalType": "uint256",
          "name": "id",
          "type": "uint256"
        },
        {
          "internalType": "string",
          "name": "content",
          "type": "string"
        },
        {
          "internalType": "uint256",
          "name": "tipAmount",
          "type": "uint256"
        },
        {
          "internalType": "address payable",
          "name": "author",
          "type": "address"
        }
      ],
      "stateMutability": "view",
      "type": "function",
      "constant": true
    },
    {
      "inputs": [],
      "name": "postsCount",
      "outputs": [
        {
          "internalType": "uint256",
          "name": "",
          "type": "uint256"
        }
      ],
      "stateMutability": "view",
      "type": "function",
      "constant": true
    },
    {
      "inputs": [
        {
          "internalType": "string",
          "name": "_content",
          "type": "string"
        }
      ],
      "name": "createPost",
      "outputs": [],
      "stateMutability": "nonpayable",
      "type": "function"
    },
    {
      "inputs": [
        {
          "internalType": "uint256",
          "name": "_id",
          "type": "uint256"
        }
      ],
      "name": "tipPost",
      "outputs": [],
      "stateMutability": "payable",
      "type": "function",
      "payable": true
    }
  ],
  "bytecode": "0x60806040523480156200001157600080fd5b506040518060400160405280600e81526020017f536f6369616c204e6574776f726b000000000000000000000000000000000000815250600090805190602001906200005f9291906200006e565b50600060018190555062000183565b8280546200007c906200014d565b90600052602060002090601f016020900481019282620000a05760008555620000ec565b82601f10620000bb57805160ff1916838001178555620000ec565b82800160010185558215620000ec579182015b82811115620000eb578251825591602001919060010190620000ce565b5b509050620000fb9190620000ff565b5090565b5b808211156200011a57600081600090555060010162000100565b5090565b7f4e487b7100000000000000000000000000000000000000000000000000000000600052602260045260246000fd5b600060028204905060018216806200016657607f821691505b602082108114156200017d576200017c6200011e565b5b50919050565b610c4680620001936000396000f3fe60806040526004361061004a5760003560e01c806306fdde031461004f5780630b1e7f831461007a5780632dcbe545146100ba57806374d3c1f8146100e5578063c7303c6114610101575b600080fd5b34801561005b57600080fd5b5061006461012a565b6040516100719190610782565b60405180910390f35b34801561008657600080fd5b506100a1600480360381019061009c91906107ee565b6101b8565b6040516100b1949392919061086b565b60405180910390f35b3480156100c657600080fd5b506100cf610290565b6040516100dc91906108b7565b60405180910390f35b6100ff60048036038101906100fa91906107ee565b610296565b005b34801561010d57600080fd5b5061012860048036038101906101239190610a07565b610513565b005b6000805461013790610a7f565b80601f016020809104026020016040519081016040528092919081815260200182805461016390610a7f565b80156101b05780601f10610185576101008083540402835291602001916101b0565b820191906000526020600020905b81548152906001019060200180831161019357829003601f168201915b505050505081565b60026020528060005260406000206000915090508060000154908060010180546101e190610a7f565b80601f016020809104026020016040519081016040528092919081815260200182805461020d90610a7f565b801561025a5780601f1061022f5761010080835404028352916020019161025a565b820191906000526020600020905b81548152906001019060200180831161023d57829003601f168201915b5050505050908060020154908060030160009054906101000a900473ffffffffffffffffffffffffffffffffffffffff16905084565b60015481565b6000811180156102a857506001548111155b6102b157600080fd5b600060026000838152602001908152602001600020604051806080016040529081600082015481526020016001820180546102eb90610a7f565b80601f016020809104026020016040519081016040528092919081815260200182805461031790610a7f565b80156103645780601f1061033957610100808354040283529160200191610364565b820191906000526020600020905b81548152906001019060200180831161034757829003601f168201915b50505050508152602001600282015481526020016003820160009054906101000a900473ffffffffffffffffffffffffffffffffffffffff1673ffffffffffffffffffffffffffffffffffffffff1673ffffffffffffffffffffffffffffffffffffffff168152505090506000816060015190508073ffffffffffffffffffffffffffffffffffffffff166108fc349081150290604051600060405180830381858888f1935050505015801561041e573d6000803e3d6000fd5b5034826040015161042f9190610ae0565b8260400181815250508160026000858152602001908152602001600020600082015181600001556020820151816001019080519060200190610472929190610646565b506040820151816002015560608201518160030160006101000a81548173ffffffffffffffffffffffffffffffffffffffff021916908373ffffffffffffffffffffffffffffffffffffffff1602179055509050507f20988fe475351e75813672abada1dddb7ac67cbbeb81e61e1160b8329d8cdf1c6001548360200151846040015184604051610506949392919061086b565b60405180910390a1505050565b600081511161052157600080fd5b6001600081548092919061053490610b36565b919050555060405180608001604052806001548152602001828152602001600081526020013373ffffffffffffffffffffffffffffffffffffffff168152506002600060015481526020019081526020016000206000820151816000015560208201518160010190805190602001906105ae929190610646565b506040820151816002015560608201518160030160006101000a81548173ffffffffffffffffffffffffffffffffffffffff021916908373ffffffffffffffffffffffffffffffffffffffff1602179055509050507fc66336337a24e513f909b3b25119854dba8385d51307dbc7d31d1b2805e19c7e6001548260003360405161063b9493929190610bc4565b60405180910390a150565b82805461065290610a7f565b90600052602060002090601f01602090048101928261067457600085556106bb565b82601f1061068d57805160ff19168380011785556106bb565b828001600101855582156106bb579182015b828111156106ba57825182559160200191906001019061069f565b5b5090506106c891906106cc565b5090565b5b808211156106e55760008160009055506001016106cd565b5090565b600081519050919050565b600082825260208201905092915050565b60005b83811015610723578082015181840152602081019050610708565b83811115610732576000848401525b50505050565b6000601f19601f8301169050919050565b6000610754826106e9565b61075e81856106f4565b935061076e818560208601610705565b61077781610738565b840191505092915050565b6000602082019050818103600083015261079c8184610749565b905092915050565b6000604051905090565b600080fd5b600080fd5b6000819050919050565b6107cb816107b8565b81146107d657600080fd5b50565b6000813590506107e8816107c2565b92915050565b600060208284031215610804576108036107ae565b5b6000610812848285016107d9565b91505092915050565b610824816107b8565b82525050565b600073ffffffffffffffffffffffffffffffffffffffff82169050919050565b60006108558261082a565b9050919050565b6108658161084a565b82525050565b6000608082019050610880600083018761081b565b81810360208301526108928186610749565b90506108a1604083018561081b565b6108ae606083018461085c565b95945050505050565b60006020820190506108cc600083018461081b565b92915050565b600080fd5b600080fd5b7f4e487b7100000000000000000000000000000000000000000000000000000000600052604160045260246000fd5b61091482610738565b810181811067ffffffffffffffff82111715610933576109326108dc565b5b80604052505050565b60006109466107a4565b9050610952828261090b565b919050565b600067ffffffffffffffff821115610972576109716108dc565b5b61097b82610738565b9050602081019050919050565b82818337600083830152505050565b60006109aa6109a584610957565b61093c565b9050828152602081018484840111156109c6576109c56108d7565b5b6109d1848285610988565b509392505050565b600082601f8301126109ee576109ed6108d2565b5b81356109fe848260208601610997565b91505092915050565b600060208284031215610a1d57610a1c6107ae565b5b600082013567ffffffffffffffff811115610a3b57610a3a6107b3565b5b610a47848285016109d9565b91505092915050565b7f4e487b7100000000000000000000000000000000000000000000000000000000600052602260045260246000fd5b60006002820490506001821680610a9757607f821691505b60208210811415610aab57610aaa610a50565b5b50919050565b7f4e487b7100000000000000000000000000000000000000000000000000000000600052601160045260246000fd5b6000610aeb826107b8565b9150610af6836107b8565b9250827fffffffffffffffffffffffffffffffffffffffffffffffffffffffffffffffff03821115610b2b57610b2a610ab1565b5b828201905092915050565b6000610b41826107b8565b91507fffffffffffffffffffffffffffffffffffffffffffffffffffffffffffffffff821415610b7457610b73610ab1565b5b600182019050919050565b6000819050919050565b6000819050919050565b6000610bae610ba9610ba484610b7f565b610b89565b6107b8565b9050919050565b610bbe81610b93565b82525050565b6000608082019050610bd9600083018761081b565b8181036020830152610beb8186610749565b9050610bfa6040830185610bb5565b610c07606083018461085c565b9594505050505056fea26469706673582212200e5d233596425ab335a976c125f480638b45377b2571e75338d7712405a7726064736f6c63430008090033",
  "immutableReferences": {},
  "source": "// SPDX-License-Identifier: UNLICENSED\npragma solidity 0.8.9;\n\ncontract SocialNetwork {\n    string public name;\n    uint public postsCount;\n    mapping(uint => Post) public posts;\n\n    struct Post {\n        uint id;\n        string content;\n        uint tipAmount;\n        address payable author;\n    }\n\n    event PostCreated(\n        uint id,\n        string content,\n        uint tipAmount,\n        address payable author\n    );\n\n    event PostTipped(\n        uint id,\n        string content,\n        uint tipAmount,\n        address payable author\n    );\n\n    constructor() {\n        name = \"Social Network\";\n        postsCount = 0;\n    }\n\n    function createPost(string memory _content) public {\n        // Require valid content\n        require(bytes(_content).length > 0);\n\n        // Increment the post count\n        postsCount++;\n\n        // Create the post\n        posts[postsCount] = Post(postsCount, _content, 0, payable(msg.sender));\n\n        // Trigget Event\n        emit PostCreated(postsCount, _content, 0, payable(msg.sender));\n    }\n\n    function tipPost(uint _id) public payable {\n        // Make sure the id is valid\n        require(_id > 0 && _id <= postsCount);\n\n        // Fetch the post\n        Post memory _post = posts[_id];\n\n        // Fetch the author\n        address payable _author = _post.author;\n\n        // Pay the author\n        payable(_author).transfer(msg.value);\n\n        // Increment the tip amount\n        _post.tipAmount = _post.tipAmount + msg.value;\n\n        // Update the post\n        posts[_id] = _post;\n\n        // Trigger an event\n        emit PostTipped(postsCount, _post.content, _post.tipAmount, _author);\n    }\n}\n",
  "sourcePath": "C:\\OSPanel\\domains\\etherium-smart-contract\\src\\contracts\\SocialNetwork.sol",
  "compiler": {
    "name": "solc",
    "version": "0.8.9+commit.e5eed63a.Emscripten.clang"
  },
  "schemaVersion": "3.4.3",
  "updatedAt": "2021-11-01T20:08:38.872Z",
  "networkType": "ethereum",
  "devdoc": {
    "kind": "dev",
    "methods": {},
    "version": 1
  },
  "userdoc": {
    "kind": "user",
    "methods": {},
    "version": 1
  }
}